S010000041565220546573742E737265636B
S11300000C9434000C9451000C9451000C94510045
S11300100C9451000C9451000C9451000C94510018
S11300200C9451000C9451000C9451000C94510008
S11300300C9451000C9451000C9451000C945100F8
S11300400C9451000C9451000C9451000C945100E8
S11300500C945100340338033C0340034403480325
S11300604C0350035403580311241FBECFE5D8E0BA
S1130070DEBFCDBF10E0A0E6B0E0EAEEFCE002C0D7
S113008005900D92A83CB107D9F720E0A8ECB0E0A8
S113009001C01D92A93CB207E1F70E9417010C941C
S11300A073060C9400000E94620162E081E00E94E9
S11300B09F0386E690E00E94CE012FEF8DE399E442
S11300C0215080409040E1F700C000008091600022
S11300D08F5F809360000E949B0308958091C80005
S11300E08F5F8093C8000E94740160E081E00E94E9
S11300F09F0384E790E00E94CE012FEF8DEE92E003
S1130100215080409040E1F700C000000E9474013B
S11301102FEF8DEE92E0215080409040E1F700C037
S113012000000E949B0362E081E00E949F0388E834
S113013090E00E94CE012FEF83ED90E321508040A8
S11301409040E1F700C000000E949B030E94D3008E
S11301500895CF93DF9300D000D01F92CDB7DEB7C0
S113016095E0E1E6F0E0DE01119601900D929A959A
S1130170E1F7E0916000F0E0319721E030E02C0FEE
S11301803D1FE20FF31F9081981303C00E94530098
S113019002C00E946E000F900F900F900F900F906E
S11301A0DF91CF910895CF9340E06091C80080E043
S11301B00E94B70360E080E00E949F0386E990E01C
S11301C00E94CE0180916000805D0E94820163E004
S11301D081E00E949F0388E990E00E94CE01C1E083
S11301E015C081E00E946D04882399F082E00E948A
S11301F06D04882381F083E00E946D04882369F0F4
S113020084E00E946D04C82F882349F0C111E9CF0E
S113021007C0C1E005C0C2E003C0C3E001C0C4E040
S11302200E949B038C2F0E94A900CF9108950E94E5
S11302302D020E945D0181E00E942E0482E00E9452
S11302402E0483E00E942E0484E00E942E0461E0C8
S113025080E00E949F0383EA90E00E94CE012FEF8A
S11302608BE792E9215080409040E1F700C0000004
S11302700E949B0363E080E00E949F038CEA90E06D
S11302800E94CE012FEF8BE792E9215080409040ED
S1130290E1F700C000000E949B03C0E003C00E947D
S11302A0D300CF5FC530D8F360E081E00E949F03A4
S11302B087EB90E00E94CE01FFCF61E083E20E94D1
S11302C08A04089561E083E20E9413052FEF8DEE06
S11302D092E0215080409040E1F700C0000060E0CF
S11302E083E20E94130508950E9462012FEF8DEEB0
S11302F092E0215080409040E1F700C000000E944D
S113030062010895CF93C82F61E08BE00E9413052A
S113031060E08CE00E9413058BB387788BBB9BB3A2
S11303208C2F86958877892B8BBB61E08CE00E94AB
S113033013058FE99FE00197F1F700C0000060E02A
S11303408CE00E9413058FE99FE00197F1F700C04C
S113035000008BB387788BBB2BB38C2F90E0880F76
S1130360991F880F991F880F991F8877822B8BBB41
S113037061E08CE00E9413058FE99FE00197F1F79B
S113038000C0000060E08CE00E9413058FE99FE04C
S11303900197F1F700C00000CF9108950F931F93C8
S11303A0CF938C01C0E003C00E948201CF5FF801AB
S11303B0EC0FF11D80818111F7CFCF911F910F9127
S11303C00895CF93C82F60E08BE00E94130560E08E
S11303D08CE00E9413058BB387788BBB9BB38C2F67
S11303E086958877892B8BBB61E08CE00E9413058E
S11303F08FE99FE00197F1F700C0000060E08CE016
S11304000E9413058FE99FE00197F1F700C00000F7
S11304108BB387788BBB2BB38C2F90E0880F991FFD
S1130420880F991F880F991F8877822B8BBB61E0F7
S11304308CE00E9413058FE99FE00197F1F700C05B
S1130440000060E08CE00E9413058FE99FE00197B3
S1130450F1F700C00000CF91089561E08CE00E94A4
S11304608A0461E08BE00E948A048FE39FE1019794
S1130470F1F700C000008AB388678ABB8CE20E944F
S1130480E1018CE00E94E10181E00E94E10182E04F
S11304900E94E10108952F923F924F925F926F92D2
S11304A07F928F929F92AF92BF92CF92DF92EF9200
S11304B0FF920F931F93CF93DF93CDB7DEB760976F
S11304C00FB6F894DEBF0FBECDBF2C833D834E83A1
S11304D05F83688779878A879B87A0E00E94670685
S11304E009F052C080E30E9482010CC12F853C8533
S11304F0482D572D662D752D842D9B8101E00E947A
S11305004506422E532E642E752E862E7C878B83B1
S1130510A92F02E00E944506A22EB32EC42ED52E8A
S1130520E62EF72E082F192F242D352D462D572D65
S1130530682D7C858B819A2F0E945E062F873C87CD
S1130540842E752E662E572E482E9B830F2EFAE08E
S1130550AF2EF02DB12CC12CD12CE12CF12C00E0CC
S113056010E02F2F3E2F422D59816A81732D892D42
S11305709B2F0E94E805F22FE32F242E59836A83D0
S1130580372E982EB92F16C0FC81ED818E819F8164
S1130590998398859A8329849A84BB8591E01C86E3
S11305A0812C712C612C512C412C312C9F873B8246
S11305B0322C282E2F2F3E2F422D59816A81732DE4
S11305C0892D9B2FA0E00E94670609F08FCF8F85AD
S11305D09C853B80292E89827A826B825C864D863B
S11305E03E86382E82C00F2EFAE0AF2EF02DB12CAD
S11305F0C12CD12CE12CF12C00E010E0232D322D64
S113060049815A816B817C858D859E850E94E80590
S1130610422E532E642E752E862E972E888B9F87FE
S1130620322E232E49835A836B837C878D879E8742
S1130630A22EB32EC42ED52EE62EF72E082F192F58
S11306402C813D814E815F81688579858A859B8572
S11306500E94E805822F90E08A30910560F5FC0144
S1130660E65DFF4F0C94E00580E30E94820123C005
S113067081E30E9482011FC082E30E9482011BC0A9
S113068083E30E94820117C084E30E94820113C0A5
S113069085E30E9482010FC086E30E9482010BC0A1
S11306A087E30E94820107C088E30E94820103C09D
S11306B089E30E948201A42CB52CC62CD72CE82CEB
S11306C0F92C08891F852C813D814E815F816885C5
S11306D079858A859B850E94E6052C833D834E831C
S11306E05F83688779878A879B87232D322D498189
S11306F05A816B817C858D859E85A0E00E9467066A
S113070009F071CF60960FB6F894DEBF0FBECDBF6F
S1130710DF91CF911F910F91FF90EF90DF90CF90D9
S1130720BF90AF909F908F907F906F905F904F900D
S11307303F902F90089581E00E94E1010895CF93A6
S1130740DF9300D0CDB7DEB790E8998390EC9A831D
S1130750E1E0F0E0EC0FFD1FE80FF11D8081860F52
S11307600E94E1010F900F90DF91CF9108951F93A4
S1130770CF93DF93182FD62FC42F64E080E00E941C
S11307809F031A3058F0212F30E040E050E060E041
S113079070E080E090E00E944B0214C020E030E062
S11307A040E050E060E070E080E090E00E944B02A6
S11307B0212F30E040E050E060E070E080E090E025
S11307C00E944B028AE30E948201DA3058F02D2FF6
S11307D030E040E050E060E070E080E090E00E94B3
S11307E04B0214C020E030E040E050E060E070E0F4
S11307F080E090E00E944B022D2F30E040E050E07A
S113080060E070E080E090E00E944B028AE30E9486
S11308108201CA3058F02C2F30E040E050E060E014
S113082070E080E090E00E944B0214C020E030E0D1
S113083040E050E060E070E080E090E00E944B0215
S11308402C2F30E040E050E060E070E080E090E089
S11308500E944B02DF91CF911F910895823071F075
S113086018F4813031F00895833069F0843081F0D8
S1130870089560E08AE20E948A04089560E08BE2B1
S11308800E948A04089560E08CE20E948A0408951C
S113089060E08DE20E948A040895CF93C82F0E94DD
S11308A09C05811115C02FEF81EE94E0215080400A
S11308B09040E1F700C000008C2F0E949C0581113C
S11308C009C08AE20E949C058823D9F380E003C012
S11308D081E001C081E0CF910895823069F018F47D
S11308E0813031F015C0833059F0843069F010C084
S11308F08AE20E944D0408958BE20E944D040895FB
S11309008CE20E944D0408958DE20E944D040895E6
S113091081E008959DEC899F912D1124292F26951E
S113092026952695220F322F330F330F230F821B68
S1130930282F969596959695662319F06130E1F1E6
S113094008959230A9F018F4913031F0089593305D
S1130950D9F0943029F108953AB381E090E002C0CF
S1130960880F991F2A95E2F7809583238ABB0895FF
S113097037B381E090E002C0880F991F2A95E2F70F
S11309808095832387BB089534B381E090E002C04F
S1130990880F991F2A95E2F78095832384BB0895D5
S11309A031B381E090E002C0880F991F2A95E2F7E5
S11309B08095832381BB08959230A1F018F491307F
S11309C031F008959330C9F0943011F108953AB399
S11309D081E090E002C0880F991F2A95E2F7832BEB
S11309E08ABB089537B381E090E002C0880F991F55
S11309F02A95E2F7832B87BB089534B381E090E016
S1130A0002C0880F991F2A95E2F7832B84BB0895AF
S1130A1031B381E090E002C0880F991F2A95E2F774
S1130A20832B81BB08959DEC899F912D1124292F3F
S1130A30269526952695220F322F330F330F230F39
S1130A40821B282F969596959695662319F061300A
S1130A50E1F108959230A9F018F4913031F008953D
S1130A609330D9F0943029F108953BB381E090E0BC
S1130A7002C0880F991F2A95E2F7809583238BBBC8
S1130A80089538B381E090E002C0880F991F2A9539
S1130A90E2F78095832388BB089535B381E090E025
S1130AA002C0880F991F2A95E2F78095832385BB9E
S1130AB0089532B381E090E002C0880F991F2A950F
S1130AC0E2F78095832382BB08959230A1F018F455
S1130AD0913031F008959330C9F0943011F10895B4
S1130AE03BB381E090E002C0880F991F2A95E2F79A
S1130AF0832B8BBB089538B381E090E002C0880F4C
S1130B00991F2A95E2F7832B88BB089535B381E0BA
S1130B1090E002C0880F991F2A95E2F7832B85BBCA
S1130B20089532B381E090E002C0880F991F2A959E
S1130B30E2F7832B82BB08959DEC899F912D1124AC
S1130B40292F269526952695220F322F330F330F02
S1130B50230F821B282F892F8695869586958230B0
S1130B6091F018F4813031F029C08330A9F0843039
S1130B70E1F024C089B390E002C0959587952A9549
S1130B80E2F78170089586B390E002C09595879549
S1130B902A95E2F78170089583B390E002C0959599
S1130BA087952A95E2F78170089580B390E002C09A
S1130BB0959587952A95E2F78170089580E00895C8
S1130BC0EE0FFF1F0590F491E02D0994689401C085
S1130BD0E8948F929F92CF93DF930E94F405DF9164
S1130BE0CF919F908F90089588249924F401E40173
S1130BF0B0E49F93AA279A158B049C04ED05FE0587
S1130C00CF05D007A10798F4AD2FDC2FCF2FFE2FEF
S1130C10E92D982C892E982F872F762F652F542F06
S1130C20432F322F2227B85031F7BF9127C01B2EF4
S1130C30BF91BB27220F331F441F551F661F771F09
S1130C40881F991F881C991CEE1FFF1FCC1FDD1FD6
S1130C50AA1FBB1F8A149B04EC05FD05CE05DF0506
S1130C60A007B10748F08A189B08EC09FD09CE09D2
S1130C70DF09A00BB10B21601A94E1F62EF4940164
S1130C80AF01BE01CD01000C08950F93083090F020
S1130C90982F872F762F652F542F432F322F2227FB
S1130CA00850F4CF220F331F441F551F661F771FB0
S1130CB0881F991F0A95B2F70F9108952A0D3B1DBD
S1130CC04C1D5D1D6E1D7F1D801F911F0895002406
S1130CD0A7FD00942A1730054005500560057005EE
S10D0CE0800590050895F894FFCFF5
S1130CEA0104040403033E3E3E2047524541542076
S1130CFA3C3C3C003E20444953504C41592031204D
S1130D0A4D494E203C3C3C003E3E3E204C4F534510
S1130D1A52203C3C3C0051004120204220204320E8
S1130D2A20440057656C636F6D65200053746172CB
S1130D3A742047616D6500436F6E67726174756CE8
S10B0D4A6174696F6E732000EF
S9030000FC
