S010000041565220546573742E737265636B
S11300000C9434000C9451000C9451000C94510045
S11300100C9451000C9451000C9451000C94510018
S11300200C9451000C9451000C942A060C945A061A
S11300300C9451000C9451000C9451000C945100F8
S11300400C9451000C9451000C9451000C945100E8
S11300500C9451005B035F03630367036B036F033B
S1130060730377037B037F0311241FBECFE5D8E01E
S1130070DEBFCDBF10E0A0E6B0E0EEE3FEE002C0DC
S113008005900D92A83CB107D9F720E0A8ECB0E0A8
S113009001C01D92A13DB207E1F70E9431010C9409
S11300A01D070C9400000E94890162E081E00E9417
S11300B0C60386E690E00E94F5012FEF8DE399E4F4
S11300C0215080409040E1F700C000008091600022
S11300D08F5F809360000E94C20308958091CA00DC
S11300E08F5F8093CA000E949B0160E081E00E94C0
S11300F0C60384E790E00E94F5012FEF8DEE92E0B5
S1130100215080409040E1F700C000000E949B0114
S11301102FEF8DEE92E0215080409040E1F700C037
S113012000000E94C20362E081E00E94C60388E8E6
S113013090E00E94F5012FEF83ED90E32150804081
S11301409040E1F700C000000E94C2030E94D30067
S11301500895CF93DF9300D000D01F92CDB7DEB7C0
S113016095E0E1E6F0E0DE01119601900D929A959A
S1130170E1F7E0916000F0E0319721E030E02C0FEE
S11301803D1FE20FF31F9081981303C00E94530098
S113019002C00E946E000F900F900F900F900F906E
S11301A0DF91CF910895CF934091C9006091CA0027
S11301B08091C8000E94DE0360E080E00E94C603D4
S11301C086E990E00E94F50180916000805D0E94C4
S11301D0A90163E081E00E94C60388E990E00E94DF
S11301E0F501C1E015C081E00E949404882399F0D0
S11301F082E00E949404882381F083E00E949404A6
S1130200882369F084E00E949404C82F882349F06D
S1130210C111E9CF07C0C1E005C0C2E003C0C3E01B
S113022001C0C4E00E94C2038C2F0E94A900CF9198
S113023008958091C9008B3320F48F5F8093C900A7
S113024007C01092C9008091CA008F5F8093CA00D2
S11302504091C9006091CA008091C8000E94DE03E9
S113026008950E9454020E94840181E00E94550472
S113027082E00E94550483E00E94550484E00E94B9
S113028055048FB780688FBF80E00E941D0660E030
S113029089E191E00E940E0661E080E00E94C603BD
S11302A083EA90E00E94F5012FEF87EA91E621505E
S11302B080409040E1F700C000000E94C20363E068
S11302C080E00E94C6038CEA90E00E94F5012FEFC3
S11302D087EA91E6215080409040E1F700C0000099
S11302E00E94C2030E940706C0E003C00E94D3001C
S11302F0CF5FC530D8F360E081E00E94C60387EB8E
S113030090E00E94F501FFCF61E083E20E94B10416
S1130310089561E083E20E943A052FEF8DEE92E0AA
S1130320215080409040E1F700C0000060E083E28B
S11303300E943A0508950E9489012FEF8DEE92E004
S1130340215080409040E1F700C000000E948901E4
S11303500895CF93C82F61E08BE00E943A0560E0D6
S11303608CE00E943A058BB387788BBB9BB38C2FB0
S113037086958877892B8BBB61E08CE00E943A05D7
S11303808FE99FE00197F1F700C0000060E08CE086
S11303900E943A058FE99FE00197F1F700C0000041
S11303A08BB387788BBB2BB38C2F90E0880F991F6E
S11303B0880F991F880F991F8877822B8BBB61E068
S11303C08CE00E943A058FE99FE00197F1F700C0A5
S11303D0000060E08CE00E943A058FE99FE00197FD
S11303E0F1F700C00000CF9108950F931F93CF93AE
S11303F08C01C0E003C00E94A901CF5FF801EC0F9B
S1130400F11D80818111F7CFCF911F910F91089534
S1130410CF93C82F60E08BE00E943A0560E08CE047
S11304200E943A058BB387788BBB9BB38C2F869540
S11304308877892B8BBB61E08CE00E943A058FE9B9
S11304409FE00197F1F700C0000060E08CE00E949B
S11304503A058FE99FE00197F1F700C000008BB3E4
S113046087788BBB2BB38C2F90E0880F991F880F54
S1130470991F880F991F8877822B8BBB61E08CE0D2
S11304800E943A058FE99FE00197F1F700C0000050
S113049060E08CE00E943A058FE99FE00197F1F754
S11304A000C00000CF91089561E08CE00E94B10487
S11304B061E08BE00E94B1048FE39FE10197F1F7C3
S11304C000C000008AB388678ABB8CE20E940802DD
S11304D08CE00E94080281E00E94080282E00E94EF
S11304E0080208952F923F924F925F926F927F92EB
S11304F08F929F92AF92BF92CF92DF92EF92FF9230
S11305000F931F93CF93DF93CDB7DEB760970FB6EA
S1130510F894DEBF0FBECDBF2C833D834E835F8333
S1130520688779878A879B87A0E00E94110709F072
S113053052C080E30E94A9010CC12F853C85482D3F
S1130540572D662D752D842D9B8101E00E94EF06A9
S1130550422E532E642E752E862E7C878B83A92FD4
S113056002E00E94EF06A22EB32EC42ED52EE62E54
S1130570F72E082F192F242D352D462D572D682D94
S11305807C858B819A2F0E9408072F873C87842EB5
S1130590752E662E572E482E9B830F2EFAE0AF2E13
S11305A0F02DB12CC12CD12CE12CF12C00E010E069
S11305B02F2F3E2F422D59816A81732D892D9B2F18
S11305C00E949206F22FE32F242E59836A83372E3A
S11305D0982EB92F16C0FC81ED818E819F8199835D
S11305E098859A8329849A84BB8591E01C86812C02
S11305F0712C612C512C412C312C9F873B82322C45
S1130600282E2F2F3E2F422D59816A81732D892D3B
S11306109B2FA0E00E94110709F08FCF8F859C8546
S11306203B80292E89827A826B825C864D863E8647
S1130630382E82C00F2EFAE0AF2EF02DB12CC12C33
S1130640D12CE12CF12C00E010E0232D322D498136
S11306505A816B817C858D859E850E949206422EEF
S1130660532E642E752E862E972E888B9F87322EBE
S1130670232E49835A836B837C878D879E87A22E82
S1130680B32EC42ED52EE62EF72E082F192F2C812B
S11306903D814E815F81688579858A859B850E942D
S11306A09206822F90E08A30910560F5FC01E65DA8
S11306B0FF4F0C948A0680E30E94A90123C081E3C2
S11306C00E94A9011FC082E30E94A9011BC083E309
S11306D00E94A90117C084E30E94A90113C085E305
S11306E00E94A9010FC086E30E94A9010BC087E301
S11306F00E94A90107C088E30E94A90103C089E3FD
S11307000E94A901A42CB52CC62CD72CE82CF92CBA
S113071008891F852C813D814E815F81688579859B
S11307208A859B850E9490062C833D834E835F833C
S1130730688779878A879B87232D322D49815A813F
S11307406B817C858D859E85A0E00E94110709F050
S113075071CF60960FB6F894DEBF0FBECDBFDF91A8
S1130760CF911F910F91FF90EF90DF90CF90BF90AA
S1130770AF909F908F907F906F905F904F903F903D
S11307802F90089581E00E9408020895CF93DF938B
S113079000D0CDB7DEB790E8998390EC9A83E1E07E
S11307A0F0E0EC0FFD1FE80FF11D8081860F0E9421
S11307B008020F900F90DF91CF9108951F93CF936C
S11307C0DF93182FD62FC42F64E080E00E94C60365
S11307D01A3058F0212F30E040E050E060E070E043
S11307E080E090E00E94720214C020E030E040E01B
S11307F050E060E070E080E090E00E947202212FFF
S113080030E040E050E060E070E080E090E00E9482
S113081072028AE30E94A901DA3058F02D2F30E0E9
S113082040E050E060E070E080E090E00E947202FE
S113083014C020E030E040E050E060E070E080E090
S113084090E00E9472022D2F30E040E050E060E022
S113085070E080E090E00E9472028AE30E94A901A5
S1130860CA3058F02C2F30E040E050E060E070E0F7
S113087080E090E00E94720214C020E030E040E08A
S113088050E060E070E080E090E00E9472022C2F63
S113089030E040E050E060E070E080E090E00E94F2
S11308A07202DF91CF911F910895823071F018F494
S11308B0813031F00895833069F0843081F00895F7
S11308C060E08AE20E94B104089560E08BE20E9435
S11308D0B104089560E08CE20E94B104089560E0E0
S11308E08DE20E94B1040895CF93C82F0E94C305DE
S11308F0811115C02FEF81EE94E02150804090408B
S1130900E1F700C000008C2F0E94C305811109C0CB
S11309108AE20E94C3058823D9F380E003C081E002
S113092001C081E0CF910895823069F018F48130DC
S113093031F015C0833059F0843069F010C08AE278
S11309400E94740408958BE20E94740408958CE25A
S11309500E94740408958DE20E947404089581E055
S113096008959DEC899F912D1124292F2695269574
S11309702695220F322F330F330F230F821B282F7C
S1130980969596959695662319F06130E1F1089550
S11309909230A9F018F4913031F008959330D9F0E1
S11309A0943029F108953AB381E090E002C0880FB1
S11309B0991F2A95E2F7809583238ABB089537B35C
S11309C081E090E002C0880F991F2A95E2F7809594
S11309D0832387BB089534B381E090E002C0880F7D
S11309E0991F2A95E2F78095832384BB089531B338
S11309F081E090E002C0880F991F2A95E2F7809564
S1130A00832381BB08959230A1F018F4913031F022
S1130A1008959330C9F0943011F108953AB381E008
S1130A2090E002C0880F991F2A95E2F7832B8ABBB6
S1130A30089537B381E090E002C0880F991F2A958A
S1130A40E2F7832B87BB089534B381E090E002C0C2
S1130A50880F991F2A95E2F7832B84BB089531B33D
S1130A6081E090E002C0880F991F2A95E2F7832B5A
S1130A7081BB08959DEC899F912D1124292F2695E2
S1130A8026952695220F322F330F330F230F821B07
S1130A90282F969596959695662319F06130E1F185
S1130AA008959230A9F018F4913031F008959330FC
S1130AB0D9F0943029F108953BB381E090E002C06D
S1130AC0880F991F2A95E2F7809583238BBB08959D
S1130AD038B381E090E002C0880F991F2A95E2F7AD
S1130AE08095832388BB089535B381E090E002C0EC
S1130AF0880F991F2A95E2F78095832385BB089573
S1130B0032B381E090E002C0880F991F2A95E2F782
S1130B108095832382BB08959230A1F018F491301C
S1130B2031F008959330C9F0943011F108953BB336
S1130B3081E090E002C0880F991F2A95E2F7832B89
S1130B408BBB089538B381E090E002C0880F991FF1
S1130B502A95E2F7832B88BB089535B381E090E0B2
S1130B6002C0880F991F2A95E2F7832B85BB08954D
S1130B7032B381E090E002C0880F991F2A95E2F712
S1130B80832B82BB08959DEC899F912D1124292FDD
S1130B90269526952695220F322F330F330F230FD8
S1130BA0821B282F892F869586958695823091F011
S1130BB018F4813031F029C08330A9F08430E1F099
S1130BC024C089B390E002C0959587952A95E2F7F1
S1130BD08170089586B390E002C0959587952A9513
S1130BE0E2F78170089583B390E002C095958795EC
S1130BF02A95E2F78170089580B390E002C095953C
S1130C0087952A95E2F78170089580E0089583B767
S1130C10887F83BF83B7856083BF0895662319F0F7
S1130C20613031F008959093CE008093CD00089503
S1130C309093D0008093CF000895882319F08130D9
S1130C4029F0089589B7816089BF089589B78260C2
S1130C5089BF08951F920F920FB60F9211242F93FC
S1130C603F934F935F936F937F938F939F93AF9330
S1130C70BF93EF93FF938091CC008F5F8093CC0060
S1130C808F3339F41092CC00E091CF00F091D00072
S1130C900995FF91EF91BF91AF919F918F917F91B2
S1130CA06F915F914F913F912F910F900FBE0F90D5
S1130CB01F9018951F920F920FB60F9211242F9325
S1130CC03F934F935F936F937F938F939F93AF93D0
S1130CD0BF93EF93FF938091CB008F5F8093CB0002
S1130CE08F3339F41092CB00E091CD00F091CE0017
S1130CF00995FF91EF91BF91AF919F918F917F9152
S1130D006F915F914F913F912F910F900FBE0F9074
S1130D101F901895EE0FFF1F0590F491E02D099494
S1130D20689401C0E8948F929F92CF93DF930E94BE
S1130D309E06DF91CF919F908F90089588249924E7
S1130D40F401E401B0E49F93AA279A158B049C0450
S1130D50ED05FE05CF05D007A10798F4AD2FDC2FD4
S1130D60CF2FFE2FE92D982C892E982F872F762FA1
S1130D70652F542F432F322F2227B85031F7BF91BC
S1130D8027C01B2EBF91BB27220F331F441F551FA3
S1130D90661F771F881F991F881C991CEE1FFF1F51
S1130DA0CC1FDD1FAA1FBB1F8A149B04EC05FD0585
S1130DB0CE05DF05A007B10748F08A189B08EC09A7
S1130DC0FD09CE09DF09A00BB10B21601A94E1F6ED
S1130DD02EF49401AF01BE01CD01000C08950F93D0
S1130DE0083090F0982F872F762F652F542F432F9C
S1130DF0322F22270850F4CF220F331F441F551FD0
S1130E00661F771F881F991F0A95B2F70F910895DF
S1130E102A0D3B1D4C1D5D1D6E1D7F1D801F911FE6
S1130E2008950024A7FD00942A17300540055005B5
S1110E3060057005800590050895F894FFCFC5
S1130E3E0104040403033E3E3E2047524541542020
S1130E4E3C3C3C003E20444953504C4159203120F7
S1130E5E4D494E203C3C3C003E3E3E204C4F5345BB
S1130E6E52203C3C3C005100412020422020432093
S1130E7E20440057656C636F6D6520005374617276
S1130E8E742047616D6500436F6E67726174756C93
S10B0E9E6174696F6E7320009A
S9030000FC
